:10000000ADC0C7C0C6C0C5C0C4C0C3C0C2C0C1C0E7
:100010000CC3BFC0BEC0BDC0BCC0BBC0BAC0B9C0AD
:10002000B8C0B7C0B6C04E414E494E495459494E6A
:1000300046CDCCCC3D0AD7233C17B7D13877CC2B53
:10004000329595E6241FB14F0A000020410000C8F8
:100050004200401C4620BCBE4CCA1B0E5AAEC59D79
:100060007400407A10F35A00A0724E18090010A5CF
:10007000D4E80000E87648170000E40B54020000C2
:10008000CA9A3B000000E1F5050000809698000048
:100090000040420F000000A0860100000010270071
:1000A000000000E803000000006400000000000AF7
:1000B00000000000000100000000002C76D888DC61
:1000C000674F0823DFC1DFAE59E1B1B796E5E3E43E
:1000D00053C63AE651997696E8E6C28426EB898CB7
:1000E0009B62ED407C6FFCEFBC9C9F40F2BAA56F19
:1000F000A5F490055A2AF75C936B6CF9676DC11BE8
:10010000FCE0E40D47FEF520E6B500D0ED902E03AF
:1001100000943577050080841E080000204E0A00F8
:100120000000C80C333333330F986E12831141EF44
:100130008D2114893BE65516CFFEE6DB18D1844BA2
:10014000381BF77C1D901DA4BBE424203284725E12
:10015000228100C9F124ECA1E53D270011241FBE36
:10016000CFE5D4E0DEBFCDBF11E0A0E6B0E0E2EA2B
:10017000F3E102C005900D92A631B107D9F721E055
:10018000A6E1B1E001C01D92A032B207E1F794D21E
:1001900006C936CFF89484B3816084BB85B38E7F63
:1001A00085BB86EA8A95F1F700C084B38E7F84BB55
:1001B00098E29A95F1F7989B02C080E001C081E037
:1001C00078949EE79A95F1F700C0089520E030E01A
:1001D0002CC0482F50E0022E02C0559547950A9436
:1001E000E2F740FF11C0F89494B3916094BB95B3CB
:1001F0009E7F95BB00C094B39E7F94BB93E19A957C
:10020000F1F7000078940FC0F89494B3916094BB18
:1002100095B39E7F95BB95E19A95F1F700C094B395
:100220009E7F94BB78942F5F3F4F283031058CF22E
:10023000089520E030E060E070E02BC0F89494B3C3
:10024000916094BB00C094B39E7F94BB84E08A9578
:10025000F1F70000989B0BC081E090E0022E02C0F5
:10026000880F991F0A94E2F7682B792B0CC041E0A4
:1002700050E0022E02C0440F551F0A94E2F7409549
:100280005095642375238FE08A95F1F778942F5F5A
:100290003F4F2830310594F2CB010895CF93DF937F
:1002A00079DF8823E1F08CEC91DF84E48FDF2FEE9F
:1002B00089E492E0215080409040E1F700C00000C6
:1002C00069DF8CEC83DF8EEB81DFB3DFEC01B1DF24
:1002D00020E030E0382FCE01822B932B02C080E04B
:1002E00090E0DF91CF910895D9DF8115984084F097
:1002F000D5DF919581959109BC01990F880B990BD8
:1003000033D320E030E040E85DE391D39058089586
:10031000C5DFBC01990F880B990B26D320E030E094
:1003200040E85DE384D30895E199FECF9FBB8EBB87
:100330006DBB8CB384608CBB8CB382608CBB089526
:10034000E199FECF9FBB8EBB8CB381608CBB8DB31C
:100350000895CF92DF92FF920F931F93CF93DF9375
:1003600000D000D0CDB7DEB76C01F12C0EC00F2D40
:1003700010E0C8018C0D9D1DE3DFE1E0F0E0EC0F23
:10038000FD1FE00FF11F8083F39483E08F1578F752
:1003900069817A818B819C810F900F900F900F90D3
:1003A000DF91CF911F910F91FF90DF90CF90089533
:1003B000EF92FF921F93CF93DF9300D000D0CDB781
:1003C000DEB77C0149835A836B837C8310E00DC0C8
:1003D000812F90E0E1E0F0E0EC0FFD1FE80FF91F46
:1003E00060818E0D9F1DA0DF1F5F143088F30F907A
:1003F0000F900F900F90DF91CF911F91FF90EF9092
:1004000008958EB583608EBD89B7846089BF1DBC99
:100410001CBC7894089581B38C6F81BB82B38370C8
:1004200082BB089582BB92B39B7F92BB92B39860CC
:1004300092BB90E19A95F1F700C092B3977F92BB7F
:100440008295807F82BB82B38B7F82BB82B38860C0
:1004500082BB80E18A95F1F700C082B3877F82BBBF
:1004600090E19A95F1F700C0089585EA9EE0019722
:10047000F1F700C0000080E3D5DF81EE94E0019742
:10048000F1F700C0000080E3CDDF91E29A95F1F72B
:10049000000080E3C7DF89EF90E00197F1F700C02B
:1004A000000082E0BFDF83EF91E00197F1F700C029
:1004B000000088E2B7DF89EF90E00197F1F700C014
:1004C00000008CE0AFDF89EF90E00197F1F700C00A
:1004D000000081E0A7DF83EF91E00197F1F700C012
:1004E000000086E09FDF89EF90E00197F1F700C000
:1004F0000000089581E096DF83EF91E00197F1F726
:1005000000C00000089582BB92B3946092BB92B386
:10051000986092BB90E19A95F1F700C092B3977FF3
:1005200092BB8295807F82BB82B3846082BB82B3A0
:10053000886082BB80E18A95F1F700C082B3877F33
:1005400082BB90E19A95F1F700C00895882319F0D5
:10055000813029F00895862F806864DF089580E453
:10056000860F80685FDF08950F931F93CF93DF930B
:100570008C01C0E0D0E002C0C6DF2196F801EC0F8C
:10058000FD1F80818111F8CFDF91CF911F910F91D5
:1005900008958F929F92AF92BF92CF92DF92EF9287
:1005A000FF920F931F93CF93DF9300D000D000D022
:1005B000CDB7DEB74B015C0169017A019BDF60E0DA
:1005C00080E0C4DF80E690E0CFDF8E010F5F1F4F39
:1005D00021E042E0C501B401DED2C801C5DF88E6F2
:1005E00090E0C2DF60E081E0B1DF8BE690E0BCDF4D
:1005F00021E042E0C701B601CED2C801B5DF88E6EE
:1006000090E0B2DF26960FB6F894DEBF0FBECDBFE6
:10061000DF91CF911F910F91FF90EF90DF90CF90DE
:10062000BF90AF909F908F9008951F920F920FB63A
:100630000F9211242F933F934F935F936F937F9368
:100640008F939F93AF93BF93EF93FF934DDE9B01E7
:10065000AC01609316017093170180931801909379
:10066000190160911A0170911B0180911C019091F8
:100670001D018FDF20911601309117014091180163
:100680005091190160911A0170911B0180911C0118
:1006900090911D0150D0FF91EF91BF91AF919F912B
:1006A0008F917F916F915F914F913F912F910F901B
:1006B0000FBE0F901F901895AEDE36D0D6DE8CE0C0
:1006C00090E070D09EDE80E090E043DE60931A01FF
:1006D00070931B0180931C0190931D0128D18133DD
:1006E00091F4209116013091170140911801509119
:1006F000190160911A0170911B0180911C01909168
:100700001D01D0D0EBCF823349F76AD0AB01BC01D9
:1007100040931A0150931B0160931C0170931D01BB
:1007200080E090E045DEDACF87B3876087BB88B38F
:10073000887F88BB08958F929F92AF92BF92CF928D
:10074000DF92EF92FF924B015C0169017A019B01FC
:10075000AC01C701B60102D188233CF488B3897F7C
:1007600088BB88B3816088BB14C0A5019401C70110
:10077000B60159D118163CF488B38C7F88BB88B376
:10078000846088BB06C088B38A7F88BB88B38260D8
:1007900088BBFF90EF90DF90CF90BF90AF909F907D
:1007A0008F90089590BD89B98BB182608BB988E133
:1007B0008AB98EE880BD08955D9BFECF8CB90895FF
:1007C000CF93DF93EC0102C0F7DF2196888181117E
:1007D000FBCFDF91CF9108955F9BFECF8CB1089541
:1007E000CF92DF92EF92FF920F931F93CF93DF93FD
:1007F00000D000D000D0CDB7DEB700E010E017C0C9
:10080000EBDFE1E0F0E0EC0FFD1FE00FF11F808374
:100810008C3249F4E1E0F0E0EC0FFD1FE00FF11F36
:100820008EE2808302C08D3029F00F5F1F4F0730AA
:10083000110534F3CE010196CDD16B017C0120E08E
:1008400030E04CE552EC8AD0882354F020E030E0D0
:100850004AEF52E4C701B601E6D0181654F011C0B1
:100860000F2EC12CD12CFCE5EF2EF2ECFF2EF02D3B
:1008700008C00F2EC12CD12CFAEFEF2EF2E4FF2E80
:10088000F02DC701B60126960FB6F894DEBF0FBE55
:10089000CDBFDF91CF911F910F91FF90EF90DF902F
:1008A000CF9008958F929F92AF92BF92CF92DF9296
:1008B000EF92FF920F931F93CF93DF9300D000D05E
:1008C00000D0CDB7DEB74B015C0169017A0183E747
:1008D00090E076DF8E010F5F1F4F21E042E0C501FF
:1008E000B40159D1C8016CDF81E890E069DF86E886
:1008F00090E066DF21E042E0C701B6014CD1C801BB
:100900005FDF81E890E05CDF26960FB6F894DEBFEB
:100910000FBECDBFDF91CF911F910F91FF90EF9050
:10092000DF90CF90BF90AF909F908F900895CF931E
:1009300082E990E045DF8FEA90E042DF8FEC90E0C3
:100940003FDF8FEE90E03CDF47DFC82F823319F4A2
:100950008CEF90E035DF8C2FCF91089540D008F4D4
:1009600081E00895E89409C097FB3EF49095809546
:10097000709561957F4F8F4F9F4F9923A9F0F92F65
:1009800096E9BB279395F695879577956795B795E3
:10099000F111F8CFFAF4BB0F11F460FF1BC06F5FC9
:1009A0007F4F8F4F9F4F16C0882311F096E911C0DB
:1009B000772321F09EE8872F762F05C0662371F0FC
:1009C00096E8862F70E060E02AF09A95660F771F10
:1009D000881FDAF7880F9695879597F90895990FEC
:1009E0000008550FAA0BE0E8FEEF16161706E807F9
:1009F000F907C0F012161306E407F50798F0621B1A
:100A0000730B840B950B39F40A2661F0232B242BEE
:100A1000252B21F408950A2609F4A140A6958FEF0D
:100A2000811D811D0895DBDF08F48FEF08950BD041
:100A300078C069D028F06ED018F0952309F05AC01C
:100A40005FC01124A2C07ED0A0F3959FD1F3950F73
:100A500050E0551F629FF001729FBB27F00DB11D42
:100A6000639FAA27F00DB11DAA1F649F6627B00DD2
:100A7000A11D661F829F2227B00DA11D621F739FBB
:100A8000B00DA11D621F839FA00D611D221F749FC9
:100A90003327A00D611D231F849F600D211D822F10
:100AA000762F6A2F11249F5750408AF0E1F0882357
:100AB0004AF0EE0FFF1FBB1F661F771F881F915064
:100AC0005040A9F79E3F510570F014C05EC05F3FD3
:100AD000ECF3983EDCF3869577956795B795F79597
:100AE000E7959F5FC1F7FE2B880F911D969587951F
:100AF00097F9089597F99F6780E870E060E008959E
:100B00009FEF80EC089500240A9416161706180625
:100B10000906089500240A94121613061406050601
:100B20000895092E0394000C11F4882352F0BB0F92
:100B300040F4BF2B11F460FF04C06F5F7F4F8F4FF5
:100B40009F4F089557FD9058440F551F59F05F3F30
:100B500071F04795880F97FB991F61F09F3F79F0DF
:100B600087950895121613061406551FF2CF469561
:100B7000F1DF08C0161617061806991FF1CF8695E3
:100B80007105610508940895E894BB2766277727C7
:100B9000CB0197F90895EF920F931F93CF93DF93B3
:100BA000E80147FD02C034E001C034E1042E000C2E
:100BB000550B57FF03C0519541955109E32E022F64
:100BC000242FAE010AD0CE01DF91CF911F910F915A
:100BD000EF9008956627772757C1A9E0B0E0E2EFCC
:100BE000F5E0A0C36A01122FB02E2BE3201720F0EE
:100BF000FF24F394F00E02C02CE3F22E0F2D27E019
:100C0000AE014F5F5F4F83D2BC014981842F897051
:100C1000813031F0E1FC06C0E0FE06C090E205C084
:100C20009DE203C09BE201C090E05E2D507143FF46
:100C30003CC0911102C083E001C084E0811718F428
:100C4000212F281B01C020E051110BC0F601822F7B
:100C500030E2882319F031938150FBCFC20ED11CB2
:100C600020E0992329F0D6019C93F60131966F017B
:100C7000C6010396E2FE0AC03EE4D6013C9341E47D
:100C800011964C93119712963C9306C03EE6F601DE
:100C9000308341E641833283FC01322F40E233232B
:100CA00009F442C041933150FACF42FF44C0911140
:100CB00002C083E001C084E0811718F4212F281BB3
:100CC00001C020E051110BC0F601822F30E28823D1
:100CD00019F031938150FBCFC20ED11C20E0992333
:100CE00029F0D6019C93F60131966F01C601039657
:100CF000E2FE0BC039E4D6013C933EE411963C93EE
:100D0000119736E412963C9307C039E6F60130831A
:100D10003EE6318336E63283FC01322F40E2332354
:100D200019F041933150FBCFFC01E20FF11D10820D
:100D30008EEF9FEFA6C021E030E0911102C020E0CD
:100D400030E0161617061CF4FB01319602C0E1E0F4
:100D5000F0E02E0F3F1FBB2021F0EB2DF0E031968D
:100D600002C0E0E0F0E02E0F3F1FE12FF0E02E1771
:100D70003F071CF4121B212F01C020E08E2D88712B
:100D800059F4F601822F30E2882319F03193815013
:100D9000FBCFC20ED11C20E0992329F0D6019C93F1
:100DA000F60131966F0151110BC0F601822F90E3CD
:100DB000882319F091938150FBCFC20ED11C20E003
:100DC0000F2D060F9A81342F307144FF03C09133E9
:100DD00009F40150101624F4093018F008E001C09D
:100DE00001E0AB0177FF02C040E050E0FB01E41BF3
:100DF000F50BA1E0B0E0AC0FBD1FEA0FFB1F8EE2C8
:100E0000A82E4B01801A91080B2D10E01195019529
:100E100011094F3FBFEF5B0721F4D601AC92119649
:100E20006D01641775072CF08416950614F4818102
:100E300001C080E3415051093196D60111967D01E0
:100E40004017510724F0D6018C936701E2CF641755
:100E5000750739F4963320F4953319F4311101C034
:100E600081E3F6018083F701822F90E2882319F055
:100E700091938150FBCFF701E20FF11D108280E0CA
:100E800090E02996ECE06AC2A0E0B0E0E9E4F7E087
:100E900049C2EC016B016115710519F0FB019183E9
:100EA00080837E01FFEFEF1AFF0A0881802F90E018
:100EB00006D2892B11F0E701F4CF0D3239F47E010F
:100EC00082E0E80EF11C098111E008C00B3229F420
:100ED0007E0192E0E90EF11C098110E0E701219703
:100EE00043E050E06EE270E0CE01F1D1892BB9F41D
:100EF000239645E050E069E270E0CE01E8D1892B0D
:100F000009F42596C114D10419F0F601D183C083E8
:100F10001111F0C060E070E080E89FE7F4C043E0AA
:100F200050E066E270E0CE01D2D1892B59F4C114B1
:100F3000D10409F4E4C0F2E0EF0EF11CF601F182F5
:100F4000E082DDC020E030E0A901C0E0D0E0F701A0
:100F500080EDA82EA00E89E08A1528F1912F9260CD
:100F6000B92E812F887012FF04C0811123C02196F1
:100F700021C081112197A5E0B0E0C4D1DC01CB01F3
:100F8000880F991FAA1FBB1F9C01AD012A0D311D9F
:100F9000411D511D283989E93807480789E158075B
:100FA00048F0166006C09EEFA9120AC013FD40C0AB
:100FB0001860B12E8FEFE81AF80A00811B2DC7CFF9
:100FC000802F8F7D8534A1F580818D3211F41061E1
:100FD00006C08B3221F0319661E070E004C081815F
:100FE000329662E070E080538A3018F0E61BF70B0F
:100FF0001FC060E070E060389CE079075CF4DB01C2
:10100000AA0FBB1FAA0FBB1F6A0F7B1F660F771F9C
:10101000680F711D3196DF0111978C9180538A30D2
:1010200050F314FF03C0719561957109C60FD71F66
:1010300011FF08C0C114D10429F0CF010197F601B6
:1010400091838083CA01B9018DDC212F2370233065
:1010500019F04B015C0106C04B015C01B7FAB0947A
:10106000B7F8B09420E030E0A901C501B40176DC06
:10107000882309F43CC0D7FF06C0D195C195D1099A
:1010800005E410E002C00DE510E06801F8E1CF1AB8
:10109000D10890E2E92EF12CCE15DF056CF0F801B5
:1010A0002591359145915491C501B401C0DC4B01A6
:1010B0005C01CE19DF09F0CF04501109F594E794D3
:1010C0000C151D0549F78A2D880F8B2D881F8F3F22
:1010D00041F020E030E0A901C501B4013FDC8111FD
:1010E00006C082E290E090931F0180931E01C5012B
:1010F000B40109C060E070E080E89FEF04C060E0E8
:1011000070E080EC9FE7CDB7DEB7ECE027C1283078
:1011100008F027E03327DA01990F311D87FD916030
:1011200000966105710539F432602E5F3D9330E31E
:101130002A95E1F708959F3F30F0803871056105E9
:1011400009F03C5F3C5F3D93913008F08068911D51
:10115000DF93CF931F930F93FF92EF92192F987FF6
:101160009695E92F96959695E90FFF27E554FF4F41
:1011700099273327EE24FF24A701E701059008945F
:10118000079428F4360FE71EF81E491F511D660FFD
:10119000771F881F991F0694A1F70590079428F4DC
:1011A000E70EF81E491F561FC11D770F881F991F94
:1011B000661F0694A1F70590079428F4F80E491FBE
:1011C000561FC71FD11D880F991F661F771F0694D2
:1011D000A1F70590079420F4490F561FC71FD81F89
:1011E000990F661F771F881F0694A9F784911095A1
:1011F000177041F0D695C79557954795F794E794A2
:101200001A95C1F7E1E6F0E06894159015913591D3
:101210006591959105907FE27395E118F10A430B72
:10122000560BC90BD009C0F7E10CF11E431F561F26
:10123000C91FD01D7EF4703311F48A95E6CFE8946F
:10124000015030F0080F0AF40027021708F4202F8D
:101250002395022F7A3328F079E37D932A95E9F7D5
:1012600010C07D932A9589F60694979567953795D2
:1012700017951794E118F10A430B560BC90BD009C7
:1012800098F023957E9173957A3308F070E37C9300
:101290002013B8F77E9170617D9330F0839571E3F0
:1012A0007D9370E32A95E1F71124EF90FF900F9161
:1012B0001F91CF91DF91992787FD90950895911106
:1012C0001EC0803219F089508550D0F70895FB0177
:1012D000DC014150504088F08D9181341CF08B35F9
:1012E0000CF4805E659161341CF06B350CF4605E2B
:1012F000861B611171F3990B0895881BFCCF992708
:101300008827089540D0A59F900DB49F900DA49F6D
:10131000800D911D112408952F923F924F925F925C
:101320006F927F928F929F92AF92BF92CF92DF92F5
:10133000EF92FF920F931F93CF93DF93CDB7DEB75A
:10134000CA1BDB0B0FB6F894DEBF0FBECDBF0994EE
:101350002A88398848885F846E847D848C849B8445
:10136000AA84B984C884DF80EE80FD800C811B8153
:10137000AA81B981CE0FD11D0FB6F894DEBF0FBE82
:10138000CDBFED010895A29FB001B39FC001A39FFF
:1013900001D0B29F700D811D1124911D0895F89404
:0213A000FFCF7D
:1013A2005365745F743A20002043004375725F7482
:1013B2003A20000D0D536574746C656420743A20F4
:1013C2000020430D0A0043757272656E7420743AF0
:1013D20020000D54656D70657261747572652063CD
:1013E2006F6E74726F6C206D656E753A0A0D003106
:1013F2002E204765742074656D7065726174757214
:101402006520696E707574202731273B0A0D003202
:101412002E205365742074656D70657261747572E7
:101422006520696E707574202732273B0A0D0059BA
:101432006F757220696E7075743A20000D456E7476
:101442006572207468652074656D7065726174756B
:0614520072653A20000063
:00000001FF
